:10000000F8FF022011040000D1370000D1370000B2
:10001000D1370000D1370000D1370000D1370000C0
:10002000D1370000D1370000D1370000D1370000B0
:10003000D1370000D1370000D1370000D1370000A0
:10004000D1370000D1370000D1370000D137000090
:10005000B53C0000D1370000D1370000D137000097
:10006000D1370000D1370000D1370000D137000070
:10007000D1370000D1370000D1370000D137000060
:10008000D1370000D1370000D1370000D137000050
:10009000D1370000D1370000D1370000D137000040
:1000A000D1370000D1370000D1370000D137000030
:1000B000D1370000D1370000D1370000072F0000F2
:1000C000D13700002B2F0000D13700004F2F000048
:1000D000D1370000732F0000D1370000D137000066
:1000E000D1370000D1370000912400009F24000088
:1000F000AD240000D1370000D1370000D137000017
:10010000F1390000F33400001535000021350000FE
:10011000D1370000D1370000D1370000D1370000BF
:10012000D1370000D1370000B33700004F2A00005C
:100130007F2A0000DF2A000019390000032B00008D
:10014000D1370000D1370000972F0000D1370000D1
:10015000D1370000D1370000D1370000D13700007F
:10016000D1370000D1370000D1370000D13700006F
:10017000D1370000D1370000D1370000D13700005F
:10018000D1370000D1370000D1370000D13700004F
:10019000D1370000D1370000D1370000E13700002F
:1001A000D1370000D1370000D1370000D13700002F
:1001B000D1370000D1370000D1370000D13700001F
:1001C000D1370000D1370000D1370000D13700000F
:100410004FF000004FF000014FF000024FF00003DA
:100420004FF000044FF000054FF000064FF00007BA
:100430004FF000084FF000094FF0000A4FF0000B9A
:100440004FF0000C62B603F027FBFEE71EF0040F2E
:100450000CBFEFF30880EFF3098003F0CBB901B4D0
:1004600004B408B410B4074B074C0022206840F4D1
:100470000000206018681A6010BC08BC04BC01BCF5
:1004800070470000007003403C8004402DE9F043B9
:100490009FB000BF65A6269CDFF8B48A8DF83B406C
:1004A000029100240B944FF0FF37044691461D46FD
:1004B0000AE019F8011B0298A0470028029000F0FA
:1004C000A1800B98401C0B9099F8000050B1252892
:1004D000EFD100210022059106920791089209911F
:1004E0000A9203E00B98A5E041F0010119F8010F11
:1004F0002028F9D023280CD02B2804D02D2805D073
:10050000302809D080E041F00201EFE741F004011A
:10051000ECE741F00801E9E741F01001E6E70D9250
:100520000AE00D98404505DA00EB800002EB40023E
:10053000303A0D9209F1010999F80020A2F130003A
:100540000A28EED399F800002E2818BF0C9726D160
:1005500019F8010F2A2808D12868286009F1010933
:1005600050F8042B28600C9219E02D280CBF09F1DB
:100570000109002000220C920BE040B90C9A424580
:1005800005DA02EB820203EB4203303B0C9309F1E4
:10059000010999F80030A3F130020A2AEDD3ADF831
:1005A0003810304699F8001000F086FE08B119F8AE
:1005B000010B8DF83A009DF83A00682805D199F8AA
:1005C000000068280CD1622106E06C2804BF99F86D
:1005D00000006C2804D171218DF83A1009F101094D
:1005E00010A804902A4619F8013B6946204600F0FD
:1005F00061F838B910AA6946204600F08FF9002842
:100600007FF562AF384615E02A2888D12A682A602B
:1006100052F8040B2A6000280D9003D540420D903B
:1006200041F0040109F101098CE70000686A6C746B
:100630007A4C00001FB0BDE8F083622820D0682803
:1006400011D06A2803D06C2827D0712825D10868DA
:10065000C01D20F007000860D0E9002308300860C2
:10066000194610467047002A0A680A60106803D0CD
:10067000121D0A6000B217E0121D0A6080B217E076
:10068000002A0A680A60106803D0121D0A6040B28E
:100690000AE0121D0A60C0B20AE0002A0A680A6075
:1006A000106803D0121D0A60C1177047121D0A603E
:1006B0000021704770B51C460D46B4F125002E6927
:1006C000114600F019811C3868D0001F022865D936
:1006D000133842D0093861D0801E16D0401E1ED07B
:1006E000401E02285AD9001F19D0401F00F08180F7
:1006F000401E32D0401E00F0CB80C01E00F0DA80D9
:10070000801E2AD0C01E28D0FCE06869421C6A61A5
:100710000A680A6052F8043B0A603354FCE095F81A
:100720003A000122FFF789FFC5E90001002904D53D
:100730006869411C69612D220DE0288F810704D56D
:100740006869411C69612B2205E0C00721D56869F1
:10075000411C6961202232541BE095F83A000022C6
:10076000FFF76BFFC5E9000195F83800010710D5C8
:10077000D5E90023002B08BF002A0AD044F020004E
:10078000782806D1686930213154401C421C6A61C6
:100790003454214668693044E86087E00868C01D29
:1007A00020F007000860D0E9002308300860C5E9A0
:1007B0000023D5E90001C80F04D06869411C6961B4
:1007C0002D220DE0288F810704D56869411C6961DD
:1007D0002B2205E0C00704D56869411C696120220D
:1007E000325468693044E8602146284600F0C4F974
:1007F00092E005F13A02507820B14FF0FF340FF645
:10080000202062E01078622808D0682824D06A2866
:1008100012D06C282ED071280ED02BE00A680A6006
:1008200052F8040B0A6020B94FF0FF340FF608208D
:100830004BE0E96A01706FE00A680A6052F8040B45
:100840000A6020B94FF0FF340FF6EC103DE0EA6A81
:10085000D317C0E900235FE00A680A6052F8040B6E
:100860000A6020B94FF0FF340FF6CC102DE0E96A92
:10087000018051E00A680A6052F8040B0A6020B94E
:100880004FF0FF340FF6B0101FE0E96A016043E05B
:100890000A680A6052F8040B0A60002120F0000286
:1008A00021F0FF33C5E90023EE607821284600F0EF
:1008B000BBF831E00868086050F8044B0860EC6051
:1008C0003CB94FF0FF340FF6881000F005FD201AF8
:1008D00070BD2E6B002E04D5204600F01DFD044691
:1008E00008E032460021204600F032FD002814BF07
:1008F000041B3446AC610FE06869411C6961252224
:10090000325409E06969481C68612522725421004B
:1009100002D0431C6B613454002070BD2DE9FC41B2
:100920000F46064690467A6B7869396ABC6A121A95
:10093000B869521A796A121AF869521A121A97F893
:100940003800141B41070FD42020002C8DF8000024
:100950000ADD254601236A463946304600F048FC48
:1009600000285DD16D1EF5D17B694246394630467F
:1009700000F03EFC002853D130208DF800003D6A85
:10098000002D09DD01236A463946304600F030FC6F
:10099000002845D16D1EF5D1BB69FA68394630464D
:1009A00000F026FC00283BD130208DF800007D6A45
:1009B000002D08DD01236A463946304600F018FC58
:1009C00070BB6D1EF6D1F868B969FB6942183946EB
:1009D000304600F00DFC18BB30208DF80000BD6AD9
:1009E000002D08DD01236A463946304600F000FC40
:1009F000B0B96D1EF6D197F8380041070DD520200B
:100A0000002C8DF8000008DD01236A463946304687
:100A100000F0EEFB20B9641EF6D10020BDE8F6819F
:100A20004FF0FF30BDE8F6812DE9FC4307466F2902
:100A30003E6908BF082405D041F02000782814BF83
:100A40000A2410243C25D7E90023642918BF69290A
:100A50009046994605D1002B03D5D8F1000869EBE3
:100A60004909B9F1000F08BFB8F1000F1FD1386B69
:100A7000E8B9082C4CD197F83800010748D5302048
:100A80003B2586F83B0043E000280ED597F8380058
:100A900000F01400102808D17B6B7969386A5B1A62
:100AA0001B1A9A1A002AC8BF3A62BDE8F3838DF870
:100AB0000010404649462246E31700F075FC3032EC
:100AC000D0B26D1E3A28019504DB9DF80000A0F11C
:100AD00051018A187255404649462246E31700F0F4
:100AE00063FC80465FEA010908BFB8F1000F03D03C
:100AF000F86871198842DCD3082C09D197F83800BE
:100B0000010705D5705D302802D06D1E302070556C
:100B1000C5F13C02BA617119F960386B8242B3DAEF
:100B2000821A3A624FF6EF70398F01403987BDE87B
:100B3000F3832DE9D04306460F4614464FF00008D4
:100B4000DFF8109412E0E00707D542464B463046E6
:100B5000394600F041FD06460F46404649464246AA
:100B60004B4600F039FD641080468946002CEAD1DE
:100B700030463946BDE8D0832DE9F84F05468A4610
:100B80004AF020048EB0D5E90089612C02AE09D06C
:100B9000286B002848BF062003D408BF672C01D16A
:100BA00001202863D5E900014A005215521C0DD1DD
:100BB0000B030BD0AAF1610103201A29A86102D20C
:100BC0000FF2A86110E00FF2A8610DE04A00521583
:100BD000521C0ED10B030CD1AAF1610103201A297A
:100BE000A86116D30FF29061E868032200F0C6FDF9
:100BF000C0E1CDE90C01DDE90C2323F00043B3F59E
:100C0000801F0DD20027002B08BF002A019703D1B7
:100C100011E00FF26061E7E701AA00F003FE0AE0CD
:100C2000CD48CE4900EB1350DDE90C2301900B4079
:100C3000CB4910461943C5E90001612C0DD1E86884
:100C400030210170821CBAF1610FEA600CBF78217B
:100C5000582141706869801C6861D5E90001CDE9BF
:100C60000C01DDE90C2333F0004104BF0028002310
:100C700000F04881612C40F0A080286B4946002894
:100C80004CBF4FF0210B00F1010B40460022002326
:100C9000DDE90C8900F0FEFD01990BF1010738BF79
:100CA00089F00049091F002F01918DF808200DF1EE
:100CB000090040F33581A94900910646404649465E
:100CC0000022002300F0FEFD80F029814800400D45
:100CD00000F11C0211D0002A0FDD40F2FF739A428E
:100CE00005DBA04909F000400143002011E0009B12
:100CF000194041EA025140460BE028F0000039F06B
:100D0000004108BF00280FBF49461C22494600F099
:100D1000F1FD8046894600F08BFEFF1F002F044640
:100D200009DD00F0A3FE02460B464046494600F0AE
:100D3000AFFE80468946F01D072104E004F00F0253
:100D400000F8012D2411002C01DD491EF6D5491EA5
:100D50005CBF002200F8012DF9D5DCE00020194627
:100D600002AA0A4400E05B1E12F80149491E8442AF
:100D7000F9D00F2804D10DF10900425C521C4254F5
:100D8000002904D50198001D02AE5B1C0190581E7D
:100D90000CD43118AAF13A040A783032D7B23A2F7B
:100DA000A8BFA218401E01F80129F5D5286B00281C
:100DB00040F1A780591E2963A3E001996A4A47F2CE
:100DC0009750414391FBF2F2019229F00046D2F193
:100DD000070204DD40463146FFF7ABFE0AE052420F
:100DE00000206249FFF7A5FE02460B464046314609
:100DF00000F0C0FE8046662C286B06BF019F0A37B4
:100E000006273F18142FC8BF142730208DF808007C
:100E100089460DF1090000E03046002F34DD06461A
:100E20004046494600F0CAFF01460A4606F108035B
:100E300004200A26B2FBF6F606EB860EA2EB4E0263
:100E4000303203F8012C0A22B6FBF2F202EB820EDA
:100E5000A6EB4E063036401E03F8026DE9D1083F7E
:100E6000002F03F10806D7DD084600F0BBFF02465D
:100E70000B464046494600F00BFE00223C4B00F07A
:100E8000ABFB80468946CBE70DF10901401A0DF115
:100E9000090604E00199491E401E0191761C317833
:100EA0003029F7D0662C02D10199491C03E0652C4A
:100EB0000CBF012100212B6BCB189842B8BF431EF9
:100EC000002B1ED4834204DAF05C3528A8BF3920F9
:100ED00000DA30201946721E02EB010800E05B1EAA
:100EE00018F80199491E8145F9D0392802D1705C62
:100EF000401C7054002904D50198401C16465B1C08
:100F00000190019800B200901BB23246514628462B
:100F100000F034F82EE0C61D002F3FF7CFAE30466C
:100F20000DF10901401A03465845C8BF5B46002B26
:100F30000DF109063FF53AAF8342BFF60FAF0DF151
:100F40000900C15C07297FF709AF0F2007E7000000
:100F5000CBCCCC0C0000244002FCFFFFFFFF0F8035
:100F60000000E03F0000F07FA08601000000F03F9D
:100F700084D797410FB0BDE8F08F00002DE9FC4306
:100F8000054683B01F46D5F83080002F164602DC98
:100F90005FF00107B9A6894649F02000BDF930404D
:100FA000662808BF641C17D0672840F0888014F1B9
:100FB000040FC0F28A80444580F2878095F838009B
:100FC000641C010702D44745B8BFB84620B2B8EB4D
:100FD000000848BF4FF000080FFA84F9E868A969D3
:100FE000B9F1000F27DC4A1C30234354B8F1000F3D
:100FF00003DC95F83800010703D5E9682E208854F2
:10100000521C18EB090FB8BFC8F1000424B26042AB
:101010006862A044B845AA61B8BF4746EB68A869B2
:101020003FB2EF613A463146184400F0A7FBA8EB07
:101030000700A862C5E022B29742084419DA3A468E
:10104000314600F09BFBA8693818A9EB0707B8F1F7
:10105000000FA8616F6203DC95F838100A0705D508
:10106000EA682E211154E869401CE861C5F828801F
:10107000A7E0314600F082FBA8693F1BB8F1000FE2
:10108000484403DC95F838100A0703D5EA682E2196
:101090001154401CA86138B28045EB68A869B8BFFC
:1010A00047463AB206EB0901184400F067FBA9690C
:1010B0003FB27918A8EB0707A9616F6281E0B9F127
:1010C000610F16D14FF0700918E0474504DA95F822
:1010D00038100A0758BFB846B8F1010848BF4FF0AA
:1010E0000008B9F1670F14BF4FF045094FF06509CB
:1010F00004E0B9F1410F08BF4FF05009A969EB684E
:10110000481CA861B8F1000F16F8012B5A5403DCF3
:1011100095F838100A0719D5EA68431CAB612E21EF
:101120001154B8F1000F11DD7F1E38B231468045F1
:10113000EE68B8BF47463AB2F01800F01FFBA86946
:101140003FB23818A861A8EB07006862E868A9698F
:101150000844002C80F8009003D42B224270811C9C
:1011600003E02D2141706442811C00206A460AE0A0
:1011700023460A2493FBF4F404EB8406A3EB460312
:1011800002F8013B401C24B2002CF1DC012806DCF3
:1011900049F02002652A04BF302201F8012B48B92A
:1011A000302001F8010B07E0401E1DF800303033FD
:1011B00001F8013B0028F7DCEA68A8691044091A25
:1011C000E96195F8380000F0140010280DD16A6923
:1011D000A969686A8A18E9698218A86A8A1882184F
:1011E000686B8242BCBF821A2A6205B0BDE8F083F8
:1011F000F8B505460E4617461C46002074B117F890
:10120000011BB068A847B06030B1F06A401CF062C2
:101210000020641EF3D1F2BD4FF0FF30F2BD00009C
:101220007072696E74665F733A20256E206469730C
:10123000616C6C6F776564007072696E74663A20D9
:1012400062616420256E20617267756D656E740041
:101250007072696E74665F733A20626164202573F0
:1012600020617267756D656E740000006E616E00BE
:101270004E414E00696E6600494E4600300030B463
:10128000002513E050F8042BD30744BFA9F1010354
:101290009A18091F042942F8045BFAD213468C07F6
:1012A00044BF15809B1CC90748BF1D7050F8041B24
:1012B0000029E7D130BC7047C9B202788A421AB11E
:1012C0001CBF10F8012FF9E718BF00207047026813
:1012D000531C03601170704780B500B906A0054922
:1012E0000B681BB122220021984701E000F087FD26
:1012F000222002BDAC75FF1F636F6E73747261694B
:101300006E742068616E646C65723A20626164205C
:101310006D6573736167650000F10103810704D097
:1013200010F8011B820781B1FAD10268A2F10131E4
:10133000914311F0803104BF50F8042FF6E709BA49
:10134000B1FA81F100EBD100401CC01A70470000D7
:10135000C9B2830706D0521E22D310F8013B99422E
:10136000F7D11FE0083A13D302F1040241EA012148
:1013700041EA014150F8043B121F21BF4B40A3F149
:10138000013C2CEA030C1CF0803FF3D0C9B2001FD3
:10139000083210F8013B521E28BF91EA030FF8D81B
:1013A00018BF0120401E7047BBBBE1B1B2F5803FC2
:1013B00080F07E80022A1ED98C46B1FBF2F102FB3E
:1013C00011C31B0443EA1043B3FBF2FC02FB1C33C2
:1013D00080B240EA0343B3FBF2F002FB103240EA72
:1013E0000C4000237047022A05D98446B0FBF2F076
:1013F00002FB10C270474AB105D100F00102490852
:101400005FEA3000704700220023704700F0FABC0A
:101410000B000200002100207047904271EB030C8A
:10142000F6D3B3F5803F2FD2F0B5B3FA83F7B1FA14
:1014300081F4A7F10F0E3D1B5340CEF1200602FAB6
:101440000EF2F3415340B5F10F0746D80F3C2C4440
:101450004140C4F12006A040F1414140B1FBF3F608
:1014600003FB1611A2FB0645001BA94102D2761E02
:101470008018594180EA010221FA0EF362FA0EF255
:1014800000215A403046F0BD30B4B1FBF3FC03FB01
:101490001C11A2FB0C45001BA94103D2ACF1010CAD
:1014A0008018594130BC02460B4660460021704707
:1014B000B2F1807F65D3F0B5B2FA82F7B1FA81F468
:1014C000C7F10F063D1B22FA06F307F1110EF24198
:1014D00020355A40B5F10F07B8D94140C4F1200674
:1014E000A040F1414140B1FBF3FC03FB1C11A2FB06
:1014F0000C45001BA94103D2BCF1010C80185941D5
:101500000F2F12D30F3FC90341EA5041B1FBF3F64D
:1015100003FB1611A2FB0645D4EBC030A94102D251
:10152000761E8018594146EACC3C07B34140C7F1CA
:101530002006B840F1414140B1FBF3F603FB161120
:10154000A2FB0645001BA94102D2761E8018594114
:1015500080EA010221FA0EF3C7F1200462FA0EF2CA
:101560000CFA07F05A402CFA04F13043F0BD80EA3F
:10157000010221FA0EF3002162FA0EF260465A408F
:10158000F0BD8C46B1FBF2F102FB11C31B0243EA32
:101590001063B3FBF2FC02FB1C331B024CEA00207D
:1015A00043EA1063B3FBF2FC02FB1C331B024CEA60
:1015B000002043EA1063B3FBF2FC02FB1C331B0266
:1015C0004CEA002043EA1063B3FBF2FC02FB1C323E
:1015D0004CEA002000237047B0B581EA030C0CF000
:1015E000004C40F2FF7515EA11541DBF15EA135760
:1015F000AC42AF4239E0E41923EA455343F4801387
:10160000C90241F0004141EA505EC7021100A7FB48
:10161000020200284FF00000EEFB01204FF0000115
:10162000E3FB072118BF42F00102401800214941A5
:10163000E3FB0E01A4F580640F0302D25200404187
:10164000494154F101046CDD470872F1004250F148
:10165000000051EB0451A1F580115CBF41EA0C017F
:10166000B0BD4CEA05510020B0BD05EA1357AC42AD
:1016700014BFAF4241E050EA410E1CBF52EA430E94
:1016800002E061460020B0BD24423C441BD15FEA29
:10169000070EF6D0090302BF01460020AEF1140E7A
:1016A000B1FA81F7AEEB070401FA07FE0C37C7F178
:1016B000200100FA07F7C8404EEA000E23EA45531E
:1016C00043F48013A2E733F00043B3FA83F704BF77
:1016D000B2FA82FE77440B3FE41BB7F1200E2FBF16
:1016E00002FA0EF3BB40C7F1200E22FA0EFE38BFFD
:1016F00043EA0E03BA40641C82E750EA410E14BF6D
:1017000052EA430E6FF000014FF4001717EB430F3E
:101710008ABF194617EB410FB5E74CEA0551002087
:10172000B0BDD4F10104B4F120070FDAC4F12007F1
:10173000520828BF42F0010210FA07F501FA07F734
:10174000E1BF2A43E0403843E1400FE0352C98DC0C
:10175000C7F1200452EA400220FA07F218BF42F013
:10176000010231FA07F0A1400A43002172F1004260
:1017700050F1000051EB0C01B0BD000062B38B07CB
:1017800008D0521E11F8013B00F8013B00F0248004
:101790008B07F6D1830740F0208000BF103A07D3B3
:1017A00030B4B1E83810103AA0E83810F9D230BCA3
:1017B000530724BFB1E80810A0E8081044BF51F84F
:1017C000043B40F8043BD20724BF31F8022B20F839
:1017D000022B44BF0B7803707047121F17D35B00B6
:1017E00009D151F8043B20F8023B1B0C121F20F8D2
:1017F000023BF6D20BE051F8043B00F8013B1B0A18
:1018000020F8023B1B0C121F00F8013BF3D238BF3B
:10181000121D521E24BF11F8013B00F8013BF8D8FD
:101820007047000010B5144600F002F8226010BDA9
:10183000C1F30A5343B14A0012F5001F28D2A3F2A4
:10184000FE32A1EB0251704750EA410C20D001F06A
:10185000004C31EA0C01B1FA81F204BFB0FA80F316
:10186000D2180B3AB2F120032CBF00FA03F19140D9
:1018700041EA0C013EBFC2F1200C20FA0CF31943DF
:101880009040524240F2FD33D21A01EB03517047AF
:10189000002270474FF4001C1CEB410F94BF1CEB5F
:1018A000430F09E041EA030C50EA4C0C52EA0C0CDD
:1018B00003D2994208BF9042704714BF8B428242C4
:1018C000704700004FF4001C1CEB410F94BF1CEB51
:1018D000430F09E041EA030C50EA4C0C52EA0C0CAD
:1018E00003D28B4208BF8242704714BF9942904294
:1018F00070470000124254D440F2FF7C1CEA11539E
:101900000FD0634531D09B1863453CBF01EB0251BA
:10191000704701F0004141EA0C510020AFF3008014
:10192000704750EA410320D001F0004C91EA0C01CD
:101930001CD0B1FA81F30B3B9A420DD9D21A9940CF
:1019400051EA0C01C3F1200C20FA0CFC61449840D0
:10195000531C40F2FF7CD7E7914041EA0C01C2F1F1
:10196000200C20FA0CF3194390407047B0FA80F332
:101970001533202BE0D3202AEED3203A203B9A4285
:1019800009D9D21A00FA03F141EA0C010020531CD4
:1019900040F2FF7CB8E700FA02F141EA0C010020B6
:1019A0007047524240F2FF7C1CEA11530DD0634550
:1019B000DBD0B2EB030C3CBFA1EB025170470CF142
:1019C000010221EA035141F4801150EA410CCCD0CC
:1019D00001F0004C352A27DC30B481EA0C01B2F169
:1019E000200309DAC2F12003044601FA03F5D040CE
:1019F0002843D1409C400CE0C3F12002450020FA6E
:101A000003F418BF44F0010421FA03F091400C43A1
:101A1000002174F1004550F1000051EB0C0124420B
:101A200030BC7FF47BAF70476146002076E7000052
:101A3000C1F30A5340F2FE329B1A14DDD3F12003A6
:101A40004FEAE17208DDC90241EA505141F000401D
:101A5000D84080185040704703F2E13010B1D243B3
:101A600082F000407047002070470000C11768B145
:101A70004840401AB0FA80F29040D21CC907C2F523
:101A8000846241EA025202EBD02140057047000017
:101A900070B44FF0004591EA030F40F1B5816B40FF
:101AA000841A71EB030603D2001BB1411219734172
:101AB0004FF4001C1CEB410F34BF7CEB430442E0AD
:101AC0000C0DA4EB1356352E4FDC45EAC323DB0A7D
:101AD00045EAC121C912B6F120050DDD63FA05F60C
:101AE000EB4086EA0305124218BF45F00105C01815
:101AF00051F100010CD213E062FA06F5F2405540B4
:101B0000F3415A40B340F3405A408018594107D33B
:101B100049085FEA30005FEA350528BF45F0010556
:101B200001F58011420875F1004250F1000041EBCF
:101B300004514E0016F5001F70BC38BF70470020DE
:101B4000090D090570471CEB410F10D252EA4306FC
:101B50000BD0BCEB410F05D80C0DAB43661E342EE9
:101B6000B6DD02E0AB438018594170BC704770BCD1
:101B700070470000F0B540F2FF7581EA030C0CF0ED
:101B8000004C15EA11541DBF15EA1357AC42AF4281
:101B9000E5E0BC41C1F31301C3F31303801A99417B
:101BA00043F4801304D2641E400049418018594117
:101BB000C90241EA5051B1FBF3F603FB1611A2FB37
:101BC0000675D7EBC020A94102D2761E8018594174
:101BD000C90241EA5051B1FBF3FE03FB1E11A2FB07
:101BE0000E75D7EBC020A94103D2AEF1010E8018CB
:101BF0005941890241EA9051760546EA8E2EB1FBA1
:101C0000F3F603FB1611A2FB0675D7EB8020A94162
:101C100002D2761E80185941C90241EA50514EEA5B
:101C2000060EB1FBF3F603FB1611A2FB0675D7EB0C
:101C3000C020A94102D2761E80185941C90241EA4A
:101C40005051B1FBF3F703FB1711A2FB0735D3EBA0
:101C5000C020A94167F100070CBF004247F001070F
:101C600066F3D5274FEA1E31B80814F5806412DDFB
:101C7000BD0775F1004250EB0E5051EB045111F5C8
:101C8000801F5CBF41EA0C01F0BD4CF07F6141F068
:101C9000E0410020F0BDBD076D0840EA0E5041F460
:101CA0008011D4F10104B4F120060ADAC4F120064F
:101CB0000200E04001FA06F3E1401843B240154348
:101CC0000EE0342C13DCC6F1200445EA40056D0813
:101CD00020FA06F2154321FA06F0A1400D43002137
:101CE00075F1004250F1000051EB0C01F0BD0020F5
:101CF0005FEA0C01F0BDCFB992185B41B3FA83F7EC
:101D000004BFB2FA82F6BF190B3FB7F120062FBF0E
:101D100002FA06F3BB40C7F1200622FA06F638BFE6
:101D20003343BA401CB1E419641E33E77F4231F0FB
:101D30000041B1FA81F404BFB0FA80F6A4190B3C5B
:101D4000B4F120062FBF00FA06F1A140C4F120062D
:101D500020FA06F638BF3143A0403C1B1AE7AC42DC
:101D60001ABF05EA1357AF4212E050EA41061CBF02
:101D700052EA4306BFE750EA4107304661461CBFBE
:101D800041EA0551F0BD52EA430C08BFC143F0BD22
:101D900000204FF4001616EB410F98BF16EB430FCF
:101DA00008BF16EB410F24BFC14305E016EB430FFC
:101DB0000CBF61464CEA0551F0BD0000400D4918CA
:101DC00040EA81200CD2490DA1F58061491C40F008
:101DD000004005DBD1F11F0154BFC840C017704758
:101DE00000207047014648B1B0FA80F18840C91C14
:101DF000C1F58461090501EBD02140057047012040
:101E000000F0B8B870470000841A71EB030604D2E2
:101E10006E40001BB141121973414FF4001C1CEBC2
:101E2000410F34BF7CEB430683E00C0DA4EB13564B
:101E3000362E00F37C80012E45EAC32341DC43EAC1
:101E4000525312BFD20292025B08240545EAC12117
:101E500041EA5051D2EBC020994125D407D1B0FAC4
:101E600080F610FA06F162D00020203608E0B1FAC0
:101E700081F6B140C6F1200220FA02F21143B040CF
:101E80004FEAF474B4EB465434F001064FEA74049C
:101E90000AD8D6F50016760D04F00044F04061FA39
:101EA00006F25040F1404840C00A40EA415021F05B
:101EB000004128BF5FEA500550F1000044EBD121FA
:101EC00035E0DB0A45EAC121C90AB6F120050EDD7D
:101ED00042EA0242120CC5F1200603FA06F6EB4074
:101EE00042EA06056D42984161F100010DE062FA97
:101EF00006F5F240554063FA06FC82EA0C02F34014
:101F00005A406D42904161EB030111F4801F05D1ED
:101F1000641E620502D06D004041494121F48011E8
:101F2000430875F1004350F1000041EB045170BCCF
:101F300070471CEB410F15D223F0004352EA4306D1
:101F40000BD04FEA4C0CBCEB410F04D80C0D661EB5
:101F5000342EB7DDEBE7801A994150EA410608BFFD
:101F60000021E4E708BF1CEB430F28BF6FF000011E
:101F7000DDE7000080B500F007F8024A11001820E4
:101F8000ABBEFBE72600020080B500F054F802006B
:101F90000023DB431068984204D011000220ABBE3E
:101FA000002010605068984204D0111D0220ABBE82
:101FB0000020506001BD0000F0B583B0040000F0C7
:101FC0003AF8A10047183D680026F643B54216D1FD
:101FD00000F01AF83D68B5420FD100BF09A000908B
:101FE000002C01D1002000E0042001900320029089
:101FF00069460120ABBE05003D6000F014F82800E2
:1020000003B0F0BD3A7474000C480121BFF35F8F38
:10201000D0E84F3FC0E8421F002AF9D1BFF35F8FDD
:10202000002BF3D170470548BFF35F8F002101708B
:10203000BFF35F8F7047024870470000B375FF1F02
:102040004004FF1F30B40400DFF87054AC420CD0E1
:10205000DFF86C54AC424FD0DFF86854AC4265D026
:10206000DFF86454AC427BD095E0DFF8604425682B
:1020700055F0807525600C0064B2002C0BD0022C4A
:1020800015D00ED3042C1ED017D3062C27D020D366
:10209000072C2AD02FE04FF48064DFF834542C60F2
:1020A00079E04FF48064DFF82C542C60F8E74FF4AB
:1020B0008064DFF824542C60F2E74FF48064DFF88A
:1020C0001C542C60ECE74FF44074DFF814542C607F
:1020D000E6E74FF48064DFF80C542C60E0E74FF43F
:1020E0008064DFF804542C60DAE74FF48064DFF892
:1020F000FC532C60D4E76DE0DFF8D043256855F041
:10210000007525600C0064B2002C02D0012C06D0B2
:102110000BE04FF44074DFF8D8532C603BE04FF4F1
:102120004074DFF8D0532C60F8E753E0DFF89C43AD
:10213000256855F0806525600C0064B2002C02D043
:10214000012C06D00BE04FF44074DFF8AC532C6048
:1021500021E04FF44074DFF8A4532C60F8E739E035
:10216000DFF89C43256855F0007525600C0064B2CB
:10217000002C0BD0022C35D02ED3042C3ED037D3DC
:10218000062C47D040D3072C4AD04FE04FF4C06410
:10219000DFF870532C600C0064B200EBC404E468F8
:1021A00034F004040D006DB200EBC505EC6028248A
:1021B0000D006DB200EBC505EC600B24046092B21B
:1021C00082600022C2649BB249B200EBC1010B6184
:1021D0000021416030BC70474FF4C064DFF82853E1
:1021E0002C60D8E74FF4C064DFF820532C60D2E7AE
:1021F0004FF4C064DFF818532C60CCE74FF4407400
:10220000DFF810532C60C6E74FF4C064DFF80853C2
:102210002C60C0E74FF44074DFF800532C60BAE73D
:102220004FF44074DFF8F8522C60B4E7D2E730B4D2
:102230000400DFF88852AC420CD0DFF88452AC4284
:102240004FD0DFF88052AC4265D0DFF87C52AC4210
:102250007BD095E0DFF87442256855F080752560E5
:102260000C0064B2002C0BD0022C15D00ED3042C21
:102270001ED017D3062C27D020D3072C2AD02FE02E
:102280004FF48064DFF848522C6079E04FF48064AA
:10229000DFF840522C60F8E74FF48064DFF83852E2
:1022A0002C60F2E74FF48064DFF830522C60ECE7EA
:1022B0004FF44074DFF828522C60E6E74FF4806456
:1022C000DFF820522C60E0E74FF48064DFF818520A
:1022D0002C60DAE74FF48064DFF810522C60D4E70A
:1022E0006DE0DFF8E841256855F0007525600C00C9
:1022F00064B2002C02D0012C06D00BE04FF44074E5
:10230000DFF8EC512C603BE04FF44074DFF8E4510F
:102310002C60F8E753E0DFF8B441256855F080659C
:1023200025600C0064B2002C02D0012C06D00BE01A
:102330004FF44074DFF8C0512C6021E04FF440743A
:10234000DFF8B8512C60F8E739E0DFF8B4412568D0
:1023500055F0007525600C0064B2002C0BD0022CE7
:1023600034D02ED3042C3BD035D3062C3ED038D3DA
:10237000072C40D044E04FF4C064DFF888512C6053
:102380000C0064B200EBC404E46834F004040D00F3
:102390006DB200EBC505EC6028240D006DB200EBBA
:1023A000C505EC600E24046092B282600022C26413
:1023B0009BB249B200EBC1010B610021416030BC0E
:1023C00070474FF4C064504D2C60D9E74FF4C0649F
:1023D0004E4D2C60D4E74FF4C0644D4D2C60CFE7D8
:1023E000CEE74FF4C0644C4D2C60C9E74FF4407405
:1023F0004A4D2C60C4E74FF44074494D2C60BFE750
:10240000DDE792B249B200EBC10002617047010002
:102410002B4A914203D02B4A91420CD016E02B4913
:102420000A6852F000720A604FF4E0613D4A1160A0
:102430003D4A11600AE025490A6852F080620A604C
:102440004FF4C0612C4A11602C4A1160416D51F06B
:1024500004014165D0F8801051F00801C0F88010E7
:102460000021C1644FF6FF718160D0F8801051F0F7
:102470000101C0F88010416D51F00101416500215A
:10248000416070470100486800224A6000B270470E
:102490002649086800200860002001207047244970
:1024A0000868002008600020012070472149086862
:1024B00000200860002001207047000000800340D9
:1024C0000090034000A0034000900B403C8004407B
:1024D00004B0044008B004400CB0044010B0044004
:1024E0001C90044014C0044018C004401CC00440A8
:1024F000209004402490044048A004404CA0044094
:102500003080044014D0044018D004401CD0044053
:1025100020D0044020B0044028D0044028B004401B
:102520002CB004403090044034900440508003406C
:102530005090034050A0034070B5DFF81C440023C6
:1025400001220121200000F02BFA002301220221A8
:10255000200000F025FADFF80444DFF80454DFF827
:10256000046400233068684343F2D401B0FBF1F205
:10257000D20892B200212000FFF764FD00233068EA
:10258000684343F2D401B0FBF1F2D20892B20121C8
:102590002000FFF757FD00233068684343F2D40161
:1025A000B0FBF1F2D20892B202212000FFF74AFDFF
:1025B00000233068684343F2D401B0FBF1F2D20843
:1025C00092B203212000FFF73DFD40F29A6330688C
:1025D00005FB00F5AD093220B5FBF0F292B2002107
:1025E000DFF88403FFF723FE70BD80B5DFF87C03BE
:1025F000FFF70DFFDFF87803FFF709FF01BD0000CB
:102600002DE9F04172B60B2000F0B2FA4FF41651EA
:10261000042000F04BFB00F0F5FC00F01BFD00F087
:1026200045FDFFF789FFFFF7E0FF002000F000FF06
:10263000012000F0FDFE0821002000F027FF62B617
:10264000002000F0DDFEDFF8204340F66A12002192
:102650002000FFF7D6FE8EE0DFF81853DFF818638E
:10266000DFF81873306832683B6839684B4302FB07
:102670000030FFF7FBF941EC100B00F0D7FF51ECF5
:10268000100BFFF7D5F928603068002838D4DFF840
:10269000CC822868052110FB01F292B2012140464C
:1026A000FFF7AFFE2868052110FB01F292B203216B
:1026B0004046FFF7A6FE002200214046FFF7A1FE9C
:1026C000002202214046FFF79CFE3868AC490968A9
:1026D0000818AC4909680818FFF7C8F9AA4AAB4BB3
:1026E000FEF77AFF02000B000020A949FFF7D0F99E
:1026F000FFF79EF9020092B200212000FFF781FE51
:102700003068002837D5954E002201213000FFF7B0
:1027100078FE002203213000FFF773FE28680521B0
:1027200010FB01F292B200213000FFF76AFE286828
:10273000052110FB01F292B202213000FFF761FE89
:1027400038688F49096808188E4909680818FFF722
:102750008DF98D4A8D4BFEF73FFF02000B000020E4
:102760008B49FFF795F9FFF763F9020092B2002158
:102770002000FFF746FE05E00020864908600120A2
:1027800085490860854D63222900042000F081FB03
:1027900000283FF461AF7A4801687A4A11607749AE
:1027A0000A68026095F90000582806D1012079498D
:1027B00008600020784908605EE095F900002D2847
:1027C00006D174480268012A02D10221016053E057
:1027D00095F9000030280FDB6E480268022A0BD101
:1027E00095F90020592A07D00322026095F90000CC
:1027F0003038404208603FE095F90000302812DB95
:1028000064480268032A0ED195F90020592A0AD09B
:10281000042202600A680A20424395F90000121A55
:1028200030320A6028E095F9000030280EDB594864
:102830000268012A0AD195F90020592A06D00622F9
:10284000026095F900003038086015E095F9000045
:10285000302811DB4F480268062A0DD195F9002077
:10286000592A09D0072202600A680A2395F9000054
:1028700003FB0202303A0A6095F90000592804D19E
:1028800095F9000058287FF477AF95F900002D28BE
:1028900006D141480168012902D10221016071E796
:1028A00095F90000302810DB3B48016802290CD163
:1028B00095F90010582908D00321016095F900000E
:1028C000303840422C4908605CE795F90000302818
:1028D00013DB3148016803290FD195F900105829FD
:1028E0000BD00421016024490A680A20424395F96B
:1028F0000000121A30320A6044E795F900003028CF
:102900000FDB2548016801290BD195F900105829E2
:1029100007D00621016095F900003038164908609B
:1029200030E795F900003028FFF62CAF1A4801680F
:1029300006297FF427AF95F9001058293FF422AFFC
:10294000072101600C490A680A2395F9000003FB7E
:102950000202303A0A6015E780F00F400080034021
:1029600040420F00A875FF1F00900B4000900340ED
:1029700000A003407C75FF1F7875FF1F7475FF1F53
:102980007075FF1F6C75FF1FCDCCCCCCCCCCEC3F51
:1029900000D4A2400075FF1F0475FF1F0875FF1FBC
:1029A00070B4644C256855F4785525600500624E76
:1029B000AD1B08D0403D08D0403D08D0403D08D078
:1029C000403D08D009E05D4C07E05D4C05E05D4C02
:1029D00003E05D4C01E05D4CFFE74FF4807544F887
:1029E000215052B2012A14D10124456914FA01F28E
:1029F00015434561012B05D1026814FA01F1114319
:102A000001600DE0026814FA01F132EA010101608F
:102A100006E04269012313FA01F132EA0101416142
:102A200070BC70470268012313FA01F15140016044
:102A30007047010046480A00D2B2521150F82200F5
:102A4000006911F01F01C84010F00100704700201C
:102A500040490A68C240D20705D50A68012313FA23
:102A600000F01043086001200A68C240D20705D573
:102A70000A68012313FA00F010430860704710B58C
:102A8000012035490A68C240D20727D50A680123C8
:102A900013FA00F0104308602120FFF7CAFF002856
:102AA00002D0012000F042FD2120FFF7C2FF0028E4
:102AB00014D12A4C012000F074FDFFF793F9C4E90A
:102AC0000001D4E900010022254BFFF753F8FEF77F
:102AD000AFFFFEF7CBFF234AC2E9000110BD80B56E
:102AE000102021490A68C240D20709D50A6801238B
:102AF00013FA00F01043086011210F48FFF792FF0E
:102B000001BD002019490A68C240D20705D50A68EC
:102B1000012313FA00F01043086001200A68C24044
:102B2000D20705D50A68012313FA00F010430860A4
:102B3000704700003880044000F00F4000900440CF
:102B400000A0044000B0044000C0044000D0044095
:102B50001804FF1FA0900440A0A004407004FF1FB1
:102B600000A8B6401004FF1FA0B00440A0D004404D
:102B700030B445490C6854F478540C60010049B2F3
:102B8000002946D040B2012816D042D3032819D0DC
:102B900015D305281CD018D307281FD01BD309280C
:102BA00022D01ED30B2825D021D30D2828D024D302
:102BB0000F282BD027D32CE00423042229E0042360
:102BC000082226E004230A2223E004230C2220E02A
:102BD00004230E221DE0042310221AE004231222F3
:102BE00017E003230C2214E00423142211E0042331
:102BF00018220EE004231C220BE004231D2208E00F
:102C000004231E2205E004231F2202E003231622D0
:102C1000FFE71E49140064B21034322044430220FE
:102C200094FBF0F01C0064B2641C90FBF4F00860AC
:102C3000086840081649086016488021017013F0A2
:102C4000070315490B70154B19681C6854F47F0471
:102C50001C605FF09B74124D2C60196012F01F0213
:102C600052F040020F490A700F490A789206FBD5CC
:102C70000A785206FCD5002202700878C0F3810061
:102C80000328FAD130BC704738800440A475FF1F78
:102C9000A875FF1F004006400440064000F00140B8
:102CA00044800440054006400640064030B402001F
:102CB00052B2002A06D0022A22D012D3042A3DD0D2
:102CC0002DD34AE0DFF8F422136853F480631360D5
:102CD0004FF44072DFF8E8321A60DFF8E8321A6029
:102CE0003BE0DFF8D822136853F4006313604FF41D
:102CF0004072DFF8D4321A60DFF8D0321A602CE06C
:102D0000DFF8B822136853F4805313604FF4407215
:102D1000DFF8BC321A60DFF8BC321A601DE0DFF861
:102D20009C22136853F4005313604FF44072DFF891
:102D3000A8321A60DFF8A4321A600EE0DFF8A02291
:102D4000136853F4806313604FF44072DFF89432D9
:102D50001A60DFF894321A60FFE7DFF89032020061
:102D600052B253F82220D27812F0F302040064B277
:102D700053F82440E270020052B253F822209278B5
:102D8000040064B253F82440A270020052B2002A38
:102D900003D0020052B2012A06D1DFF8542214688F
:102DA000DFF85022544305E0DFF84C221468DFF8C6
:102DB000442254430A01B4FBF2F21500ADB2B5F55A
:102DC000005F01DB41F6FF72B4FBF1F4110089B240
:102DD000B4EB0114010049B253F821100D7815F03D
:102DE000E005C2F304210D43010049B253F821105C
:102DF0000D70010049B253F821104A70010049B228
:102E000053F82110897A11F0E00114F01F040C43EB
:102E1000010049B253F821108C72010049B253F8F5
:102E20002110097C51F08801020052B253F822208F
:102E30001174010049B253F82110C97851F00C0106
:102E400040B253F82000C17030BC7047674902009F
:102E500052B251F8222012799206F7D540B251F8B9
:102E6000200090F9070040B27047604B020052B258
:102E700053F82220927D002A07D040B253F8200058
:102E800090F907000870012002E00020087000207F
:102E90007047F8B504000D001600002705EB070188
:102EA000200040B2FFF7E1FF00280BD0E8570028D0
:102EB00005D07F1CB742F1D3380040B204E038009F
:102EC00040B201E0380040B2F2BD484A03005BB2B4
:102ED00052F823301B791B06F7D540B252F8200078
:102EE000C171704770B504000D00160006E095F939
:102EF0000010200040B2FFF7E8FF6D1C3000461EB6
:102F00000028F4D170BD00B585B00020FFF79EFF0A
:102F100040B202003949684600F00AFC14226946B2
:102F20000020FFF7DFFF05B000BD00B585B0012030
:102F3000FFF78CFF40B202003149684600F0F8FB11
:102F4000142269460120FFF7CDFF05B000BD00B592
:102F500099B00220FFF77AFF40B202002849684684
:102F600000F0E6FB642269460220FFF7BBFF19B0C0
:102F700000BD00B585B00320FFF768FF40B2020036
:102F80001F49684600F0D4FB142269460320FFF76E
:102F9000A9FF05B000BD00B585B00420FFF756FFBE
:102FA00040B202001649684600F0C2FB142269468E
:102FB0000420FFF797FF05B000BD000034800440F7
:102FC0003C900440389004400CB0044010B00440E1
:102FD0000CC0044008C0044040B0044044B0044069
:102FE0002880044064D0044060D004402C04FF1FBB
:102FF000A475FF1F40420F00A875FF1FA43D0000ED
:10300000B83D000010B50123012211210E48FFF741
:10301000C7FC0E4C0123012200212000FFF7C0FC59
:10302000012301221A210A48FFF7BAFC01230122D9
:1030300012212000FFF7B4FC0123012213212000FC
:10304000FFF7AEFC10BD000000F00F4080F00F4015
:1030500000F10F4010B5134C002300220621200080
:10306000FFF79EFC0023002207212000FFF798FCB9
:103070000023002208212000FFF792FC00230022F9
:1030800009212000FFF78CFC074C002300220B21B4
:103090002000FFF785FC0023002212212000FFF70B
:1030A0007FFC10BD80F00F4000F00F4010B5DFF83E
:1030B0007843002301220C212000FFF771FC00233C
:1030C00001220D212000FFF76BFC002301220E21BD
:1030D0002000FFF765FC002301220F212000FFF7ED
:1030E0005FFC0023012210212000FFF759FC20681B
:1030F00030F480502060322000F03AFB206850F419
:1031000080502060322000F033FB112000F0DFF807
:10311000052000F02DFB3A2000F0D9F8552000F0F2
:1031200000F9262000F0D3F8042000F0FAF8F2208D
:1031300000F0CDF8012000F0F4F8E02000F0C7F82E
:103140003F2000F0EEF8252000F0EBF81C2000F006
:10315000E8F81E2000F0E5F8202000F0E2F8122048
:1031600000F0DFF82A2000F0DCF8902000F0D9F819
:10317000242000F0D6F8112000F0D3F8002000F051
:10318000D0F8002000F0CDF8002000F0CAF80020B0
:1031900000F0C7F8002000F0C4F8E12000F097F834
:1031A000202000F0BEF8202000F0BBF8202000F026
:1031B000B8F8202000F0B5F8052000F0B2F80020A3
:1031C00000F0AFF8152000F0ACF8A72000F0A9F847
:1031D0003D2000F0A6F8182000F0A3F8252000F00C
:1031E000A0F82A2000F09DF82B2000F09AF82B2060
:1031F00000F097F83A2000F094F8B12000F067F85A
:10320000002000F08EF8002000F08BF8B42000F0D1
:103210005EF8072000F085F8C02000F058F80A207A
:1032200000F07FF8022000F07CF8C12000F04FF899
:10323000022000F076F8C52000F049F84F2000F099
:1032400070F85A2000F06DF8C72000F040F84020D8
:1032500000F067F82A2000F03AF8002000F061F84A
:10326000002000F05EF8002000F05BF8A82000F0DD
:1032700058F82B2000F02BF8002000F052F8002026
:1032800000F04FF8002000F04CF8B32000F049F8AF
:10329000362000F01CF8A02000F043F8B72000F022
:1032A00016F8002000F03DF8292000F010F82C203E
:1032B00000F00DF810BD00000100481E002905D0E7
:1032C00000213229F8DA00BF491CFAE7704770B5CF
:1032D0000400DFF85451286830F4005028600026BC
:1032E0001AE0286830F4804028600CE0286830F448
:1032F000004028600120FFF7DFFF2006F1D5286895
:1033000050F480402860286850F400402860012074
:10331000FFF7D2FF6400761C3000C0B20828E5DB5E
:1033200070BD70B50400DFF80051286850F40050FB
:10333000286000261AE0286830F4804028600CE0FD
:10334000286830F4004028600120FFF7B5FF200610
:10335000F1D5286850F480402860286850F4004077
:1033600028600120FFF7A8FF6400761C3000C0B27F
:103370000828E5DB70BDDFF8B420116851F4005176
:103380001160002114E0136833F48043136009E0F6
:10339000136833F4004313600304F4D5136853F443
:1033A00080431360136853F4004313604000491CCA
:1033B0000B00DBB2102BEBDB704780B52A20FFF748
:1033C00086FF0020FFF7ADFF0020FFF7AAFF0020D7
:1033D000FFF7A7FFA820FFF7A4FF2B20FFF777FF39
:1033E0000020FFF79EFF0020FFF79BFF0020FFF764
:1033F00098FFB320FFF795FF2C20FFF768FF01BD72
:1034000070B50400FFF7D9FF002507E0200080B267
:10341000FFF7B1FF761C842EF8D36D1CA22D01D2CC
:103420000026F8E770BD000080F00F4080F00F40EC
:1034300040B200280CD10D48016851F000610160D4
:103440000B48016831F090010160016801600BE0F8
:103450000848016851F0006101600548016831F4D5
:103460001041016001680160704700003C80044029
:103470001880044030800440012210F01F018A406F
:10348000604940B2400941F82020704780B55E4A4B
:10349000136853F4000313605C4A13689B089B0095
:1034A00013605B4B5B4A126851434FF47A7251438D
:1034B000020052B212019950010049B209011944A7
:1034C000C96851F00101020052B212011A44D160E0
:1034D000010049B209011944896851F00301020051
:1034E00052B212011A449160303040B2FFF7C4FF6B
:1034F00001BD10B54848016851F001010160474C19
:103500004748FEF7BFFF206046490A6820688218D6
:103510000A6010BD4048016851F001010160704728
:103520004148016851F001010160704736490A685D
:1035300052F400020A6035490A68920892000A6053
:103540003349020052B212010A44926852085200F2
:1035500003005BB21B010B449A605FF0FF32030073
:103560005BB21B01CA50020052B212010A44D26877
:1035700052F0010203005BB21B010B44DA6002004F
:1035800052B212010A4492685208520003005BB220
:103590001B010B449A60012240B200010844826082
:1035A00070471B4A5FF0FF33010049B20901114423
:1035B0004968591A03005BB21B011344DB68DB073F
:1035C00019D5010049B209011144C96851F001013E
:1035D00003005BB21B011344D960010049B2090129
:1035E000114489684908490040B2000110448160D3
:1035F0005FF0FF3004E011F1010F00D1491E080017
:103600007047000000E100E03C800440007003408F
:1036100000710340A875FF1F1C7103409C75FF1FBC
:1036200000900340A075FF1F3C71034051EC100B4C
:1036300000B500F003F841EC100B00BD40F2FF7C38
:103640000B0D4DD0634566D230B421EA035141F4ED
:10365000801103F2FD3C5FEA5C0C01D30018494184
:10366000890041EA907180004FF440140023E20287
:10367000D50AB1F5100107D46D081DD2091B6419D4
:1036800000184941491BF7D56D080AD20919641B76
:1036900000184941491BEFD56D08F7D301E05208E6
:1036A00017D0C01861419B1AAC4100184941801ADB
:1036B000A941F4D452080AD0C01AA1419B186C4108
:1036C00000184941801AA941E9D45208F4D15B1C81
:1036D0006C4161084FEA330001EB0C5130BC70477C
:1036E00050EA0103FBD030B4B1FA81F311B9B0FA5A
:1036F00080F41B190B3BB3F120042FBF00FA04F137
:103700009940C3F1200420FA04F438BF21439840C3
:10371000D3F101039DE7634514BF50EA410CDEE796
:1037200011F5801FDBD8D943AFF30080704700004C
:103730000CB430B583B00A4606A9029104460025B0
:103740000194009502AB01A9084878441E30FCF7AB
:103750009DFE019A157000284EBF04460198041B77
:10376000204603B030BC5DF80CFB00BF63DBFFFFFD
:1037700080B580B200F001F801BD010089B20029D6
:1037800016D00F490A6852F001020A600D49002262
:103790000A6080B20D4A106005200B4A10600120BB
:1037A000086008680006FCD508684008400008600A
:1037B00070470448016851F08001016070470000C3
:1037C0003880044000000440040004400800044025
:1037D00080B52E480178C9B22D4800F085F801BDAA
:1037E00080B52C48016851F0807101602A4800F0D2
:1037F0007BF801BD2DE9F84F046845688668C76805
:10380000D0F81080D0F81490D0F818A0D0F81CB0E0
:10381000224800F069F82100214800F065F82900ED
:10382000204800F061F831001F4800F05DF83900D1
:103830001E4800F059F841461D4800F055F8494629
:103840001C4800F051F851461B4800F04DF859460D
:103850001A4800F049F81A4801681A4800F044F87C
:1038600019480168194800F03FF8194801681948DB
:1038700000F03AF818480168184800F035F8184880
:103880000168184800F030F8FEE7000004ED00E0A1
:10389000C03B000010900440183C0000743D000044
:1038A000CC3D0000D83D0000E43D0000F03D0000AC
:1038B000FC3D0000083E0000143E0000203E0000D9
:1038C00038ED00E02C3E000028ED00E0383E00001E
:1038D0002CED00E0443E000030ED00E0503E0000E2
:1038E0003CED00E05C3E00000EB4C0B5024603A80B
:1038F00000210190009101AB0121044878440C3073
:10390000FCF7C4FD06BC5DF810FB00BF810400009D
:10391000DFF800F04904FF1F80B5DFF8A800016858
:1039200049042BD5016851F480410160DFF8900013
:10393000007801280BD1DFF89010DFF890000278B2
:103940007820424311440420FFF7E2FF0AE0DFF849
:103950008010DFF878000278782042431144042078
:10396000FFF7D6FFDFF864000178792902DB002138
:10397000017021E00178491C01701DE00168090413
:103980001AD5016851F4004101600020DFF83C10B5
:103990000870DFF82C000178012902D102210170A2
:1039A00001E001210170DFF82C000168491C016071
:1039B0000120DFF80810087001BD0000B275FF1F7C
:1039C000B175FF1FA0C004407804FF1FB075FF1F32
:1039D000B83CFF1FFC74FF1F80B52748FEF752FD5F
:1039E000264908602648FEF74DFD2649086001BDBE
:1039F00080B53020C046C0462348016851F001011F
:103A00000160FFF7E9FF19481E4909684942016052
:103A100018491A4A12680A60134A1268022A0ADB15
:103A20001A4A13680068C3181360194A13680868B3
:103A3000C318136005E000201449086000201449F1
:103A4000086012480068124909680818FEF70EF865
:103A50000022104BFDF7C0FDFDF7EAFF04490860A6
:103A60003020C046C04601BDF874FF1F8875FF1F97
:103A70009875FF1F8C75FF1F009003408475FF1F12
:103A800000A003408075FF1F0C7103409075FF1F5D
:103A90009475FF1F0000E03F80B500F057F800F07C
:103AA00008F81F48016851F470010160FEF7A8FD95
:103AB000FEE780B51B4A1C48904209D0002104E073
:103AC00052F8213040F82130491CB1F5826FF7D30C
:103AD00000F054F8154A164B1649C91A03E0187835
:103AE00010705B1C521C0800411E0028F7D1124ABE
:103AF0001249891A02E000201070521C0800411E71
:103B00000028F8D10E4A0F4B0F49C91A03E0187864
:103B100010705B1C521C0800411E0028F7D101BD2B
:103B200088ED00E0000000000000FF1F1004FF1FF0
:103B3000883B0000C03B00007004FF1FB475FF1FEE
:103B40004804FF1F3C3C0000603C000080B500F0D2
:103B500007F808490A884FF6FE7002400A8001BD46
:103B600072B605484CF2205101804DF628110180B3
:103B700062B67047002005400E20054001490860EC
:103B80007047000008ED00E0000000000000694000
:103B900000F00F4040F00F4080F00F40C0F00F40A9
:103BA00000F10F4000A0064000B0064000C00640F3
:103BB00000D0064000A00E40FFFFFFFFFFFFFFFF09
:103BC0000A2A2A2A2A64656661756C745F697372B1
:103BD00020656E7465726564206F6E20766563740F
:103BE0006F722025642A2A2A2A2A0D0A0A00000058
:103BF00010B5074979441831064C7C44163404E06A
:103C00000A68081D114488470146A142F8D110BD39
:103C100094000000A00000000A2A2A2A2A41626FAC
:103C2000727420627574746F6E20696E746572723E
:103C30007570742A2A2A2A0A0A000000064A03001C
:103C4000DBB25B011A44116104490A68012313FACB
:103C500000F0104308607047009000400C80004066
:103C60004EF68851CEF20001086840F470000860FA
:103C7000BFF34F8FBFF36F8F4FF00070E1EE100A6C
:103C8000704718B583B003001400009301910294AB
:103C900069460520ABBE01221900201AAFF300804F
:103CA00004B010BDDBD5FFFF447100007004FF1F9E
:103CB000000000000648016851F01001016003484F
:103CC000016831F010010160704700000C80004075
:103CD0002480004080B58DF8000001226946012053
:103CE00000F008F8012802D19DF8000002BD4FF055
:103CF000FF3002BD80B5002802D400F003F802BDF9
:103D0000002002BD80B5002901D1002002BD01289C
:103D100001D0022802D100F004F802BDFFF7B1FF84
:103D200002BD30B583B00C0015000120FEF744F948
:103D300000900194029569460520ABBE281A03B095
:103D400030BD00000120C046002801D0FFF750FF21
:103D5000AFF300800020AFF30080FEF751FC00F0CD
:103D600000F800F001B8000007463846FEF702F9F7
:103D7000FBE700005B48617264206661756C74202B
:103D800068616E646C65725D0A00000038B50446B7
:103D90000D462846FFF79EFFA84218BF0024204684
:103DA00032BD0000C4E3B7A2CBCDB5C4CAFDBEDDB1
:103DB000CEAAA3BA25780A00C4E3B7A2CBCDB5C476
:103DC000CAFDBEDDCEAAA3BA25630A005230203D4B
:103DD0002025780A000000005231203D2025780A75
:103DE000000000005232203D2025780A000000002B
:103DF0005233203D2025780A000000005231322045
:103E00003D2025780A0000004C52203D2025780AEC
:103E1000000000005043203D2025780A00000000EB
:103E2000505352203D2025780A000000424641525E
:103E3000203D2025780A000043465352203D20258E
:103E4000780A000048465352203D2025780A000099
:103E500044465352203D2025780A000041465352E3
:103E6000203D2025780A0000AFF30080FFF7F8FE20
:043E7000FFF768FFF1
:0400000500003E6950
:00000001FF
